{
	"data": {
		"bytecode": {
			"linkReferences": {},
			"object": "60806040523480156200001157600080fd5b5060405162000bf538038062000bf5833981810160405281019062000037919062000140565b806000806101000a81548173ffffffffffffffffffffffffffffffffffffffff021916908373ffffffffffffffffffffffffffffffffffffffff1602179055508160038190555082426200008c9190620001cb565b60018190555050505062000228565b600080fd5b6000819050919050565b620000b581620000a0565b8114620000c157600080fd5b50565b600081519050620000d581620000aa565b92915050565b600073ffffffffffffffffffffffffffffffffffffffff82169050919050565b60006200010882620000db565b9050919050565b6200011a81620000fb565b81146200012657600080fd5b50565b6000815190506200013a816200010f565b92915050565b6000806000606084860312156200015c576200015b6200009b565b5b60006200016c86828701620000c4565b93505060206200017f86828701620000c4565b9250506040620001928682870162000129565b9150509250925092565b7f4e487b7100000000000000000000000000000000000000000000000000000000600052601160045260246000fd5b6000620001d882620000a0565b9150620001e583620000a0565b9250827fffffffffffffffffffffffffffffffffffffffffffffffffffffffffffffffff038211156200021d576200021c6200019c565b5b828201905092915050565b6109bd80620002386000396000f3fe6080604052600436106100705760003560e01c80633ccfd60b1161004e5780633ccfd60b146100d5578063447a77861461010057806391f9015714610117578063d57bde791461014257610070565b80631998aeef146100755780632a24f46c1461007f57806338af3eed146100aa575b600080fd5b61007d61016d565b005b34801561008b57600080fd5b506100946102fe565b6040516100a19190610609565b60405180910390f35b3480156100b657600080fd5b506100bf610304565b6040516100cc9190610665565b60405180910390f35b3480156100e157600080fd5b506100ea610328565b6040516100f7919061069b565b60405180910390f35b34801561010c57600080fd5b5061011561044c565b005b34801561012357600080fd5b5061012c6105c4565b60405161013991906106d7565b60405180910390f35b34801561014e57600080fd5b506101576105ea565b6040516101649190610609565b60405180910390f35b6001544211156101b2576040517f08c379a00000000000000000000000000000000000000000000000000000000081526004016101a99061074f565b60405180910390fd5b60035434116101f6576040517f08c379a00000000000000000000000000000000000000000000000000000000081526004016101ed906107bb565b60405180910390fd5b60006003541461027b5760035460046000600260009054906101000a900473ffffffffffffffffffffffffffffffffffffffff1673ffffffffffffffffffffffffffffffffffffffff1673ffffffffffffffffffffffffffffffffffffffff1681526020019081526020016000206000828254610273919061080a565b925050819055505b33600260006101000a81548173ffffffffffffffffffffffffffffffffffffffff021916908373ffffffffffffffffffffffffffffffffffffffff160217905550346003819055507ff4757a49b326036464bec6fe419a4ae38c8a02ce3e68bf0809674f6aab8ad30033346040516102f4929190610860565b60405180910390a1565b60015481565b60008054906101000a900473ffffffffffffffffffffffffffffffffffffffff1681565b600080600460003373ffffffffffffffffffffffffffffffffffffffff1673ffffffffffffffffffffffffffffffffffffffff1681526020019081526020016000205490506000811115610443576000600460003373ffffffffffffffffffffffffffffffffffffffff1673ffffffffffffffffffffffffffffffffffffffff168152602001908152602001600020819055503373ffffffffffffffffffffffffffffffffffffffff166108fc829081150290604051600060405180830381858888f193505050506104425780600460003373ffffffffffffffffffffffffffffffffffffffff1673ffffffffffffffffffffffffffffffffffffffff168152602001908152602001600020819055506000915050610449565b5b60019150505b90565b600154421015610491576040517f08c379a0000000000000000000000000000000000000000000000000000000008152600401610488906108d5565b60405180910390fd5b600560009054906101000a900460ff16156104e1576040517f08c379a00000000000000000000000000000000000000000000000000000000081526004016104d890610967565b60405180910390fd5b6001600560006101000a81548160ff0219169083151502179055507fdaec4582d5d9595688c8c98545fdd1c696d41c6aeaeb636737e84ed2f5c00eda600260009054906101000a900473ffffffffffffffffffffffffffffffffffffffff16600354604051610551929190610860565b60405180910390a160008054906101000a900473ffffffffffffffffffffffffffffffffffffffff1673ffffffffffffffffffffffffffffffffffffffff166108fc6003549081150290604051600060405180830381858888f193505050501580156105c1573d6000803e3d6000fd5b50565b600260009054906101000a900473ffffffffffffffffffffffffffffffffffffffff1681565b60035481565b6000819050919050565b610603816105f0565b82525050565b600060208201905061061e60008301846105fa565b92915050565b600073ffffffffffffffffffffffffffffffffffffffff82169050919050565b600061064f82610624565b9050919050565b61065f81610644565b82525050565b600060208201905061067a6000830184610656565b92915050565b60008115159050919050565b61069581610680565b82525050565b60006020820190506106b0600083018461068c565b92915050565b60006106c182610624565b9050919050565b6106d1816106b6565b82525050565b60006020820190506106ec60008301846106c8565b92915050565b600082825260208201905092915050565b7f41756374696f6e20616c726561647920656e6465642e00000000000000000000600082015250565b60006107396016836106f2565b915061074482610703565b602082019050919050565b600060208201905081810360008301526107688161072c565b9050919050565b7f546865726520616c7265616479206973206120686967686572206269642e0000600082015250565b60006107a5601e836106f2565b91506107b08261076f565b602082019050919050565b600060208201905081810360008301526107d481610798565b9050919050565b7f4e487b7100000000000000000000000000000000000000000000000000000000600052601160045260246000fd5b6000610815826105f0565b9150610820836105f0565b9250827fffffffffffffffffffffffffffffffffffffffffffffffffffffffffffffffff03821115610855576108546107db565b5b828201905092915050565b600060408201905061087560008301856106c8565b61088260208301846105fa565b9392505050565b7f41756374696f6e206e6f742079657420656e6465642e00000000000000000000600082015250565b60006108bf6016836106f2565b91506108ca82610889565b602082019050919050565b600060208201905081810360008301526108ee816108b2565b9050919050565b7f61756374696f6e456e642068617320616c7265616479206265656e2063616c6c60008201527f65642e0000000000000000000000000000000000000000000000000000000000602082015250565b60006109516023836106f2565b915061095c826108f5565b604082019050919050565b6000602082019050818103600083015261098081610944565b905091905056fea2646970667358221220a723062f1612d7a036789b75a8cee8b65aa84fcb004d341be976b60b296c95af64736f6c63430008090033",
			"opcodes": "PUSH1 0x80 PUSH1 0x40 MSTORE CALLVALUE DUP1 ISZERO PUSH3 0x11 JUMPI PUSH1 0x0 DUP1 REVERT JUMPDEST POP PUSH1 0x40 MLOAD PUSH3 0xBF5 CODESIZE SUB DUP1 PUSH3 0xBF5 DUP4 CODECOPY DUP2 DUP2 ADD PUSH1 0x40 MSTORE DUP2 ADD SWAP1 PUSH3 0x37 SWAP2 SWAP1 PUSH3 0x140 JUMP JUMPDEST DUP1 PUSH1 0x0 DUP1 PUSH2 0x100 EXP DUP2 SLOAD DUP2 PUSH20 0xFFFFFFFFFFFFFFFFFFFFFFFFFFFFFFFFFFFFFFFF MUL NOT AND SWAP1 DUP4 PUSH20 0xFFFFFFFFFFFFFFFFFFFFFFFFFFFFFFFFFFFFFFFF AND MUL OR SWAP1 SSTORE POP DUP2 PUSH1 0x3 DUP2 SWAP1 SSTORE POP DUP3 TIMESTAMP PUSH3 0x8C SWAP2 SWAP1 PUSH3 0x1CB JUMP JUMPDEST PUSH1 0x1 DUP2 SWAP1 SSTORE POP POP POP POP PUSH3 0x228 JUMP JUMPDEST PUSH1 0x0 DUP1 REVERT JUMPDEST PUSH1 0x0 DUP2 SWAP1 POP SWAP2 SWAP1 POP JUMP JUMPDEST PUSH3 0xB5 DUP2 PUSH3 0xA0 JUMP JUMPDEST DUP2 EQ PUSH3 0xC1 JUMPI PUSH1 0x0 DUP1 REVERT JUMPDEST POP JUMP JUMPDEST PUSH1 0x0 DUP2 MLOAD SWAP1 POP PUSH3 0xD5 DUP2 PUSH3 0xAA JUMP JUMPDEST SWAP3 SWAP2 POP POP JUMP JUMPDEST PUSH1 0x0 PUSH20 0xFFFFFFFFFFFFFFFFFFFFFFFFFFFFFFFFFFFFFFFF DUP3 AND SWAP1 POP SWAP2 SWAP1 POP JUMP JUMPDEST PUSH1 0x0 PUSH3 0x108 DUP3 PUSH3 0xDB JUMP JUMPDEST SWAP1 POP SWAP2 SWAP1 POP JUMP JUMPDEST PUSH3 0x11A DUP2 PUSH3 0xFB JUMP JUMPDEST DUP2 EQ PUSH3 0x126 JUMPI PUSH1 0x0 DUP1 REVERT JUMPDEST POP JUMP JUMPDEST PUSH1 0x0 DUP2 MLOAD SWAP1 POP PUSH3 0x13A DUP2 PUSH3 0x10F JUMP JUMPDEST SWAP3 SWAP2 POP POP JUMP JUMPDEST PUSH1 0x0 DUP1 PUSH1 0x0 PUSH1 0x60 DUP5 DUP7 SUB SLT ISZERO PUSH3 0x15C JUMPI PUSH3 0x15B PUSH3 0x9B JUMP JUMPDEST JUMPDEST PUSH1 0x0 PUSH3 0x16C DUP7 DUP3 DUP8 ADD PUSH3 0xC4 JUMP JUMPDEST SWAP4 POP POP PUSH1 0x20 PUSH3 0x17F DUP7 DUP3 DUP8 ADD PUSH3 0xC4 JUMP JUMPDEST SWAP3 POP POP PUSH1 0x40 PUSH3 0x192 DUP7 DUP3 DUP8 ADD PUSH3 0x129 JUMP JUMPDEST SWAP2 POP POP SWAP3 POP SWAP3 POP SWAP3 JUMP JUMPDEST PUSH32 0x4E487B7100000000000000000000000000000000000000000000000000000000 PUSH1 0x0 MSTORE PUSH1 0x11 PUSH1 0x4 MSTORE PUSH1 0x24 PUSH1 0x0 REVERT JUMPDEST PUSH1 0x0 PUSH3 0x1D8 DUP3 PUSH3 0xA0 JUMP JUMPDEST SWAP2 POP PUSH3 0x1E5 DUP4 PUSH3 0xA0 JUMP JUMPDEST SWAP3 POP DUP3 PUSH32 0xFFFFFFFFFFFFFFFFFFFFFFFFFFFFFFFFFFFFFFFFFFFFFFFFFFFFFFFFFFFFFFFF SUB DUP3 GT ISZERO PUSH3 0x21D JUMPI PUSH3 0x21C PUSH3 0x19C JUMP JUMPDEST JUMPDEST DUP3 DUP3 ADD SWAP1 POP SWAP3 SWAP2 POP POP JUMP JUMPDEST PUSH2 0x9BD DUP1 PUSH3 0x238 PUSH1 0x0 CODECOPY PUSH1 0x0 RETURN INVALID PUSH1 0x80 PUSH1 0x40 MSTORE PUSH1 0x4 CALLDATASIZE LT PUSH2 0x70 JUMPI PUSH1 0x0 CALLDATALOAD PUSH1 0xE0 SHR DUP1 PUSH4 0x3CCFD60B GT PUSH2 0x4E JUMPI DUP1 PUSH4 0x3CCFD60B EQ PUSH2 0xD5 JUMPI DUP1 PUSH4 0x447A7786 EQ PUSH2 0x100 JUMPI DUP1 PUSH4 0x91F90157 EQ PUSH2 0x117 JUMPI DUP1 PUSH4 0xD57BDE79 EQ PUSH2 0x142 JUMPI PUSH2 0x70 JUMP JUMPDEST DUP1 PUSH4 0x1998AEEF EQ PUSH2 0x75 JUMPI DUP1 PUSH4 0x2A24F46C EQ PUSH2 0x7F JUMPI DUP1 PUSH4 0x38AF3EED EQ PUSH2 0xAA JUMPI JUMPDEST PUSH1 0x0 DUP1 REVERT JUMPDEST PUSH2 0x7D PUSH2 0x16D JUMP JUMPDEST STOP JUMPDEST CALLVALUE DUP1 ISZERO PUSH2 0x8B JUMPI PUSH1 0x0 DUP1 REVERT JUMPDEST POP PUSH2 0x94 PUSH2 0x2FE JUMP JUMPDEST PUSH1 0x40 MLOAD PUSH2 0xA1 SWAP2 SWAP1 PUSH2 0x609 JUMP JUMPDEST PUSH1 0x40 MLOAD DUP1 SWAP2 SUB SWAP1 RETURN JUMPDEST CALLVALUE DUP1 ISZERO PUSH2 0xB6 JUMPI PUSH1 0x0 DUP1 REVERT JUMPDEST POP PUSH2 0xBF PUSH2 0x304 JUMP JUMPDEST PUSH1 0x40 MLOAD PUSH2 0xCC SWAP2 SWAP1 PUSH2 0x665 JUMP JUMPDEST PUSH1 0x40 MLOAD DUP1 SWAP2 SUB SWAP1 RETURN JUMPDEST CALLVALUE DUP1 ISZERO PUSH2 0xE1 JUMPI PUSH1 0x0 DUP1 REVERT JUMPDEST POP PUSH2 0xEA PUSH2 0x328 JUMP JUMPDEST PUSH1 0x40 MLOAD PUSH2 0xF7 SWAP2 SWAP1 PUSH2 0x69B JUMP JUMPDEST PUSH1 0x40 MLOAD DUP1 SWAP2 SUB SWAP1 RETURN JUMPDEST CALLVALUE DUP1 ISZERO PUSH2 0x10C JUMPI PUSH1 0x0 DUP1 REVERT JUMPDEST POP PUSH2 0x115 PUSH2 0x44C JUMP JUMPDEST STOP JUMPDEST CALLVALUE DUP1 ISZERO PUSH2 0x123 JUMPI PUSH1 0x0 DUP1 REVERT JUMPDEST POP PUSH2 0x12C PUSH2 0x5C4 JUMP JUMPDEST PUSH1 0x40 MLOAD PUSH2 0x139 SWAP2 SWAP1 PUSH2 0x6D7 JUMP JUMPDEST PUSH1 0x40 MLOAD DUP1 SWAP2 SUB SWAP1 RETURN JUMPDEST CALLVALUE DUP1 ISZERO PUSH2 0x14E JUMPI PUSH1 0x0 DUP1 REVERT JUMPDEST POP PUSH2 0x157 PUSH2 0x5EA JUMP JUMPDEST PUSH1 0x40 MLOAD PUSH2 0x164 SWAP2 SWAP1 PUSH2 0x609 JUMP JUMPDEST PUSH1 0x40 MLOAD DUP1 SWAP2 SUB SWAP1 RETURN JUMPDEST PUSH1 0x1 SLOAD TIMESTAMP GT ISZERO PUSH2 0x1B2 JUMPI PUSH1 0x40 MLOAD PUSH32 0x8C379A000000000000000000000000000000000000000000000000000000000 DUP2 MSTORE PUSH1 0x4 ADD PUSH2 0x1A9 SWAP1 PUSH2 0x74F JUMP JUMPDEST PUSH1 0x40 MLOAD DUP1 SWAP2 SUB SWAP1 REVERT JUMPDEST PUSH1 0x3 SLOAD CALLVALUE GT PUSH2 0x1F6 JUMPI PUSH1 0x40 MLOAD PUSH32 0x8C379A000000000000000000000000000000000000000000000000000000000 DUP2 MSTORE PUSH1 0x4 ADD PUSH2 0x1ED SWAP1 PUSH2 0x7BB JUMP JUMPDEST PUSH1 0x40 MLOAD DUP1 SWAP2 SUB SWAP1 REVERT JUMPDEST PUSH1 0x0 PUSH1 0x3 SLOAD EQ PUSH2 0x27B JUMPI PUSH1 0x3 SLOAD PUSH1 0x4 PUSH1 0x0 PUSH1 0x2 PUSH1 0x0 SWAP1 SLOAD SWAP1 PUSH2 0x100 EXP SWAP1 DIV PUSH20 0xFFFFFFFFFFFFFFFFFFFFFFFFFFFFFFFFFFFFFFFF AND PUSH20 0xFFFFFFFFFFFFFFFFFFFFFFFFFFFFFFFFFFFFFFFF AND PUSH20 0xFFFFFFFFFFFFFFFFFFFFFFFFFFFFFFFFFFFFFFFF AND DUP2 MSTORE PUSH1 0x20 ADD SWAP1 DUP2 MSTORE PUSH1 0x20 ADD PUSH1 0x0 KECCAK256 PUSH1 0x0 DUP3 DUP3 SLOAD PUSH2 0x273 SWAP2 SWAP1 PUSH2 0x80A JUMP JUMPDEST SWAP3 POP POP DUP2 SWAP1 SSTORE POP JUMPDEST CALLER PUSH1 0x2 PUSH1 0x0 PUSH2 0x100 EXP DUP2 SLOAD DUP2 PUSH20 0xFFFFFFFFFFFFFFFFFFFFFFFFFFFFFFFFFFFFFFFF MUL NOT AND SWAP1 DUP4 PUSH20 0xFFFFFFFFFFFFFFFFFFFFFFFFFFFFFFFFFFFFFFFF AND MUL OR SWAP1 SSTORE POP CALLVALUE PUSH1 0x3 DUP2 SWAP1 SSTORE POP PUSH32 0xF4757A49B326036464BEC6FE419A4AE38C8A02CE3E68BF0809674F6AAB8AD300 CALLER CALLVALUE PUSH1 0x40 MLOAD PUSH2 0x2F4 SWAP3 SWAP2 SWAP1 PUSH2 0x860 JUMP JUMPDEST PUSH1 0x40 MLOAD DUP1 SWAP2 SUB SWAP1 LOG1 JUMP JUMPDEST PUSH1 0x1 SLOAD DUP2 JUMP JUMPDEST PUSH1 0x0 DUP1 SLOAD SWAP1 PUSH2 0x100 EXP SWAP1 DIV PUSH20 0xFFFFFFFFFFFFFFFFFFFFFFFFFFFFFFFFFFFFFFFF AND DUP2 JUMP JUMPDEST PUSH1 0x0 DUP1 PUSH1 0x4 PUSH1 0x0 CALLER PUSH20 0xFFFFFFFFFFFFFFFFFFFFFFFFFFFFFFFFFFFFFFFF AND PUSH20 0xFFFFFFFFFFFFFFFFFFFFFFFFFFFFFFFFFFFFFFFF AND DUP2 MSTORE PUSH1 0x20 ADD SWAP1 DUP2 MSTORE PUSH1 0x20 ADD PUSH1 0x0 KECCAK256 SLOAD SWAP1 POP PUSH1 0x0 DUP2 GT ISZERO PUSH2 0x443 JUMPI PUSH1 0x0 PUSH1 0x4 PUSH1 0x0 CALLER PUSH20 0xFFFFFFFFFFFFFFFFFFFFFFFFFFFFFFFFFFFFFFFF AND PUSH20 0xFFFFFFFFFFFFFFFFFFFFFFFFFFFFFFFFFFFFFFFF AND DUP2 MSTORE PUSH1 0x20 ADD SWAP1 DUP2 MSTORE PUSH1 0x20 ADD PUSH1 0x0 KECCAK256 DUP2 SWAP1 SSTORE POP CALLER PUSH20 0xFFFFFFFFFFFFFFFFFFFFFFFFFFFFFFFFFFFFFFFF AND PUSH2 0x8FC DUP3 SWAP1 DUP2 ISZERO MUL SWAP1 PUSH1 0x40 MLOAD PUSH1 0x0 PUSH1 0x40 MLOAD DUP1 DUP4 SUB DUP2 DUP6 DUP9 DUP9 CALL SWAP4 POP POP POP POP PUSH2 0x442 JUMPI DUP1 PUSH1 0x4 PUSH1 0x0 CALLER PUSH20 0xFFFFFFFFFFFFFFFFFFFFFFFFFFFFFFFFFFFFFFFF AND PUSH20 0xFFFFFFFFFFFFFFFFFFFFFFFFFFFFFFFFFFFFFFFF AND DUP2 MSTORE PUSH1 0x20 ADD SWAP1 DUP2 MSTORE PUSH1 0x20 ADD PUSH1 0x0 KECCAK256 DUP2 SWAP1 SSTORE POP PUSH1 0x0 SWAP2 POP POP PUSH2 0x449 JUMP JUMPDEST JUMPDEST PUSH1 0x1 SWAP2 POP POP JUMPDEST SWAP1 JUMP JUMPDEST PUSH1 0x1 SLOAD TIMESTAMP LT ISZERO PUSH2 0x491 JUMPI PUSH1 0x40 MLOAD PUSH32 0x8C379A000000000000000000000000000000000000000000000000000000000 DUP2 MSTORE PUSH1 0x4 ADD PUSH2 0x488 SWAP1 PUSH2 0x8D5 JUMP JUMPDEST PUSH1 0x40 MLOAD DUP1 SWAP2 SUB SWAP1 REVERT JUMPDEST PUSH1 0x5 PUSH1 0x0 SWAP1 SLOAD SWAP1 PUSH2 0x100 EXP SWAP1 DIV PUSH1 0xFF AND ISZERO PUSH2 0x4E1 JUMPI PUSH1 0x40 MLOAD PUSH32 0x8C379A000000000000000000000000000000000000000000000000000000000 DUP2 MSTORE PUSH1 0x4 ADD PUSH2 0x4D8 SWAP1 PUSH2 0x967 JUMP JUMPDEST PUSH1 0x40 MLOAD DUP1 SWAP2 SUB SWAP1 REVERT JUMPDEST PUSH1 0x1 PUSH1 0x5 PUSH1 0x0 PUSH2 0x100 EXP DUP2 SLOAD DUP2 PUSH1 0xFF MUL NOT AND SWAP1 DUP4 ISZERO ISZERO MUL OR SWAP1 SSTORE POP PUSH32 0xDAEC4582D5D9595688C8C98545FDD1C696D41C6AEAEB636737E84ED2F5C00EDA PUSH1 0x2 PUSH1 0x0 SWAP1 SLOAD SWAP1 PUSH2 0x100 EXP SWAP1 DIV PUSH20 0xFFFFFFFFFFFFFFFFFFFFFFFFFFFFFFFFFFFFFFFF AND PUSH1 0x3 SLOAD PUSH1 0x40 MLOAD PUSH2 0x551 SWAP3 SWAP2 SWAP1 PUSH2 0x860 JUMP JUMPDEST PUSH1 0x40 MLOAD DUP1 SWAP2 SUB SWAP1 LOG1 PUSH1 0x0 DUP1 SLOAD SWAP1 PUSH2 0x100 EXP SWAP1 DIV PUSH20 0xFFFFFFFFFFFFFFFFFFFFFFFFFFFFFFFFFFFFFFFF AND PUSH20 0xFFFFFFFFFFFFFFFFFFFFFFFFFFFFFFFFFFFFFFFF AND PUSH2 0x8FC PUSH1 0x3 SLOAD SWAP1 DUP2 ISZERO MUL SWAP1 PUSH1 0x40 MLOAD PUSH1 0x0 PUSH1 0x40 MLOAD DUP1 DUP4 SUB DUP2 DUP6 DUP9 DUP9 CALL SWAP4 POP POP POP POP ISZERO DUP1 ISZERO PUSH2 0x5C1 JUMPI RETURNDATASIZE PUSH1 0x0 DUP1 RETURNDATACOPY RETURNDATASIZE PUSH1 0x0 REVERT JUMPDEST POP JUMP JUMPDEST PUSH1 0x2 PUSH1 0x0 SWAP1 SLOAD SWAP1 PUSH2 0x100 EXP SWAP1 DIV PUSH20 0xFFFFFFFFFFFFFFFFFFFFFFFFFFFFFFFFFFFFFFFF AND DUP2 JUMP JUMPDEST PUSH1 0x3 SLOAD DUP2 JUMP JUMPDEST PUSH1 0x0 DUP2 SWAP1 POP SWAP2 SWAP1 POP JUMP JUMPDEST PUSH2 0x603 DUP2 PUSH2 0x5F0 JUMP JUMPDEST DUP3 MSTORE POP POP JUMP JUMPDEST PUSH1 0x0 PUSH1 0x20 DUP3 ADD SWAP1 POP PUSH2 0x61E PUSH1 0x0 DUP4 ADD DUP5 PUSH2 0x5FA JUMP JUMPDEST SWAP3 SWAP2 POP POP JUMP JUMPDEST PUSH1 0x0 PUSH20 0xFFFFFFFFFFFFFFFFFFFFFFFFFFFFFFFFFFFFFFFF DUP3 AND SWAP1 POP SWAP2 SWAP1 POP JUMP JUMPDEST PUSH1 0x0 PUSH2 0x64F DUP3 PUSH2 0x624 JUMP JUMPDEST SWAP1 POP SWAP2 SWAP1 POP JUMP JUMPDEST PUSH2 0x65F DUP2 PUSH2 0x644 JUMP JUMPDEST DUP3 MSTORE POP POP JUMP JUMPDEST PUSH1 0x0 PUSH1 0x20 DUP3 ADD SWAP1 POP PUSH2 0x67A PUSH1 0x0 DUP4 ADD DUP5 PUSH2 0x656 JUMP JUMPDEST SWAP3 SWAP2 POP POP JUMP JUMPDEST PUSH1 0x0 DUP2 ISZERO ISZERO SWAP1 POP SWAP2 SWAP1 POP JUMP JUMPDEST PUSH2 0x695 DUP2 PUSH2 0x680 JUMP JUMPDEST DUP3 MSTORE POP POP JUMP JUMPDEST PUSH1 0x0 PUSH1 0x20 DUP3 ADD SWAP1 POP PUSH2 0x6B0 PUSH1 0x0 DUP4 ADD DUP5 PUSH2 0x68C JUMP JUMPDEST SWAP3 SWAP2 POP POP JUMP JUMPDEST PUSH1 0x0 PUSH2 0x6C1 DUP3 PUSH2 0x624 JUMP JUMPDEST SWAP1 POP SWAP2 SWAP1 POP JUMP JUMPDEST PUSH2 0x6D1 DUP2 PUSH2 0x6B6 JUMP JUMPDEST DUP3 MSTORE POP POP JUMP JUMPDEST PUSH1 0x0 PUSH1 0x20 DUP3 ADD SWAP1 POP PUSH2 0x6EC PUSH1 0x0 DUP4 ADD DUP5 PUSH2 0x6C8 JUMP JUMPDEST SWAP3 SWAP2 POP POP JUMP JUMPDEST PUSH1 0x0 DUP3 DUP3 MSTORE PUSH1 0x20 DUP3 ADD SWAP1 POP SWAP3 SWAP2 POP POP JUMP JUMPDEST PUSH32 0x41756374696F6E20616C726561647920656E6465642E00000000000000000000 PUSH1 0x0 DUP3 ADD MSTORE POP JUMP JUMPDEST PUSH1 0x0 PUSH2 0x739 PUSH1 0x16 DUP4 PUSH2 0x6F2 JUMP JUMPDEST SWAP2 POP PUSH2 0x744 DUP3 PUSH2 0x703 JUMP JUMPDEST PUSH1 0x20 DUP3 ADD SWAP1 POP SWAP2 SWAP1 POP JUMP JUMPDEST PUSH1 0x0 PUSH1 0x20 DUP3 ADD SWAP1 POP DUP2 DUP2 SUB PUSH1 0x0 DUP4 ADD MSTORE PUSH2 0x768 DUP2 PUSH2 0x72C JUMP JUMPDEST SWAP1 POP SWAP2 SWAP1 POP JUMP JUMPDEST PUSH32 0x546865726520616C7265616479206973206120686967686572206269642E0000 PUSH1 0x0 DUP3 ADD MSTORE POP JUMP JUMPDEST PUSH1 0x0 PUSH2 0x7A5 PUSH1 0x1E DUP4 PUSH2 0x6F2 JUMP JUMPDEST SWAP2 POP PUSH2 0x7B0 DUP3 PUSH2 0x76F JUMP JUMPDEST PUSH1 0x20 DUP3 ADD SWAP1 POP SWAP2 SWAP1 POP JUMP JUMPDEST PUSH1 0x0 PUSH1 0x20 DUP3 ADD SWAP1 POP DUP2 DUP2 SUB PUSH1 0x0 DUP4 ADD MSTORE PUSH2 0x7D4 DUP2 PUSH2 0x798 JUMP JUMPDEST SWAP1 POP SWAP2 SWAP1 POP JUMP JUMPDEST PUSH32 0x4E487B7100000000000000000000000000000000000000000000000000000000 PUSH1 0x0 MSTORE PUSH1 0x11 PUSH1 0x4 MSTORE PUSH1 0x24 PUSH1 0x0 REVERT JUMPDEST PUSH1 0x0 PUSH2 0x815 DUP3 PUSH2 0x5F0 JUMP JUMPDEST SWAP2 POP PUSH2 0x820 DUP4 PUSH2 0x5F0 JUMP JUMPDEST SWAP3 POP DUP3 PUSH32 0xFFFFFFFFFFFFFFFFFFFFFFFFFFFFFFFFFFFFFFFFFFFFFFFFFFFFFFFFFFFFFFFF SUB DUP3 GT ISZERO PUSH2 0x855 JUMPI PUSH2 0x854 PUSH2 0x7DB JUMP JUMPDEST JUMPDEST DUP3 DUP3 ADD SWAP1 POP SWAP3 SWAP2 POP POP JUMP JUMPDEST PUSH1 0x0 PUSH1 0x40 DUP3 ADD SWAP1 POP PUSH2 0x875 PUSH1 0x0 DUP4 ADD DUP6 PUSH2 0x6C8 JUMP JUMPDEST PUSH2 0x882 PUSH1 0x20 DUP4 ADD DUP5 PUSH2 0x5FA JUMP JUMPDEST SWAP4 SWAP3 POP POP POP JUMP JUMPDEST PUSH32 0x41756374696F6E206E6F742079657420656E6465642E00000000000000000000 PUSH1 0x0 DUP3 ADD MSTORE POP JUMP JUMPDEST PUSH1 0x0 PUSH2 0x8BF PUSH1 0x16 DUP4 PUSH2 0x6F2 JUMP JUMPDEST SWAP2 POP PUSH2 0x8CA DUP3 PUSH2 0x889 JUMP JUMPDEST PUSH1 0x20 DUP3 ADD SWAP1 POP SWAP2 SWAP1 POP JUMP JUMPDEST PUSH1 0x0 PUSH1 0x20 DUP3 ADD SWAP1 POP DUP2 DUP2 SUB PUSH1 0x0 DUP4 ADD MSTORE PUSH2 0x8EE DUP2 PUSH2 0x8B2 JUMP JUMPDEST SWAP1 POP SWAP2 SWAP1 POP JUMP JUMPDEST PUSH32 0x61756374696F6E456E642068617320616C7265616479206265656E2063616C6C PUSH1 0x0 DUP3 ADD MSTORE PUSH32 0x65642E0000000000000000000000000000000000000000000000000000000000 PUSH1 0x20 DUP3 ADD MSTORE POP JUMP JUMPDEST PUSH1 0x0 PUSH2 0x951 PUSH1 0x23 DUP4 PUSH2 0x6F2 JUMP JUMPDEST SWAP2 POP PUSH2 0x95C DUP3 PUSH2 0x8F5 JUMP JUMPDEST PUSH1 0x40 DUP3 ADD SWAP1 POP SWAP2 SWAP1 POP JUMP JUMPDEST PUSH1 0x0 PUSH1 0x20 DUP3 ADD SWAP1 POP DUP2 DUP2 SUB PUSH1 0x0 DUP4 ADD MSTORE PUSH2 0x980 DUP2 PUSH2 0x944 JUMP JUMPDEST SWAP1 POP SWAP2 SWAP1 POP JUMP INVALID LOG2 PUSH5 0x6970667358 0x22 SLT KECCAK256 0xA7 0x23 MOD 0x2F AND SLT 0xD7 LOG0 CALLDATASIZE PUSH25 0x9B75A8CEE8B65AA84FCB004D341BE976B60B296C95AF64736F PUSH13 0x63430008090033000000000000 "
		},
		"gasEstimates": {
			"creation": {
				"codeDepositCost": "498600",
				"executionCost": "infinite",
				"totalCost": "infinite"
			},
			"external": {
				"aucEnd()": "infinite",
				"auctionEnd()": "2452",
				"beneficiary()": "2556",
				"bid()": "infinite",
				"highestBid()": "2495",
				"highestBidder()": "2558",
				"withdraw()": "infinite"
			}
		},
		"methodIdentifiers": {
			"aucEnd()": "447a7786",
			"auctionEnd()": "2a24f46c",
			"beneficiary()": "38af3eed",
			"bid()": "1998aeef",
			"highestBid()": "d57bde79",
			"highestBidder()": "91f90157",
			"withdraw()": "3ccfd60b"
		}
	},
	"abi": [
		{
			"inputs": [
				{
					"internalType": "uint256",
					"name": "_biddingTime",
					"type": "uint256"
				},
				{
					"internalType": "uint256",
					"name": "_startingPrice",
					"type": "uint256"
				},
				{
					"internalType": "address payable",
					"name": "_beneficiary",
					"type": "address"
				}
			],
			"stateMutability": "nonpayable",
			"type": "constructor"
		},
		{
			"anonymous": false,
			"inputs": [
				{
					"indexed": false,
					"internalType": "address",
					"name": "winner",
					"type": "address"
				},
				{
					"indexed": false,
					"internalType": "uint256",
					"name": "amount",
					"type": "uint256"
				}
			],
			"name": "AuctionEnded",
			"type": "event"
		},
		{
			"anonymous": false,
			"inputs": [
				{
					"indexed": false,
					"internalType": "address",
					"name": "bidder",
					"type": "address"
				},
				{
					"indexed": false,
					"internalType": "uint256",
					"name": "amount",
					"type": "uint256"
				}
			],
			"name": "HighestBidIncreased",
			"type": "event"
		},
		{
			"inputs": [],
			"name": "aucEnd",
			"outputs": [],
			"stateMutability": "nonpayable",
			"type": "function"
		},
		{
			"inputs": [],
			"name": "auctionEnd",
			"outputs": [
				{
					"internalType": "uint256",
					"name": "",
					"type": "uint256"
				}
			],
			"stateMutability": "view",
			"type": "function"
		},
		{
			"inputs": [],
			"name": "beneficiary",
			"outputs": [
				{
					"internalType": "address payable",
					"name": "",
					"type": "address"
				}
			],
			"stateMutability": "view",
			"type": "function"
		},
		{
			"inputs": [],
			"name": "bid",
			"outputs": [],
			"stateMutability": "payable",
			"type": "function"
		},
		{
			"inputs": [],
			"name": "highestBid",
			"outputs": [
				{
					"internalType": "uint256",
					"name": "",
					"type": "uint256"
				}
			],
			"stateMutability": "view",
			"type": "function"
		},
		{
			"inputs": [],
			"name": "highestBidder",
			"outputs": [
				{
					"internalType": "address",
					"name": "",
					"type": "address"
				}
			],
			"stateMutability": "view",
			"type": "function"
		},
		{
			"inputs": [],
			"name": "withdraw",
			"outputs": [
				{
					"internalType": "bool",
					"name": "",
					"type": "bool"
				}
			],
			"stateMutability": "nonpayable",
			"type": "function"
		}
	]
}